:020000040800F2
:1000000000500020490F0008390A00083B0A000888
:100010003D0A00083F0A0008410A000800000000ED
:100020000000000000000000000000001140000877
:10003000430A000800000000A1400008450A00082B
:10004000910F0008910F0008910F0008910F000810
:10005000910F0008910F0008910F0008910F000800
:10006000910F0008910F0008910F0008910F0008F0
:10007000910F0008910F0008910F0008910F0008E0
:10008000910F0008910F0008910F0008910F0008D0
:10009000910F0008910F0008910F0008910F0008C0
:1000A000910F0008910F0008910F0008910F0008B0
:1000B000910F0008910F0008910F0008910F0008A0
:1000C000910F0008910F0008910F0008910F000890
:1000D000910F00085D0A0008690A0008910F0008E6
:1000E000910F0008910F0008910F00080000000018
:1000F0000000000000000000000000000000000000
:0C01000000000000000000005FF808F1A3
:1001100010B5054C237833B9044B13B10448AFF341
:1001200000800123237010BD140000200000000097
:10013000AC44000808B5034B1BB103490348AFF3B7
:10014000008008BD0000000018000020AC4400083A
:1001500008B5012002F08AFAFBE700F0C7BB0000F7
:1001600008B5054C20464FF4005101F0FEF8C820B8
:1001700002F07CFAF6E700BF0010014008B501204C
:1001800002F074FAFBE7000008B500F049F91848DE
:1001900002F078FA174B02211860174A0A2002F081
:1001A000EBFA164B02211860154A0A2002F0E4FA15
:1001B000144B00211860144A144802F013FA144B2F
:1001C00000211860134A144802F00CFA134B002166
:1001D0001860134A134802F005FA134B0021186007
:1001E000124A134802F0FEF9124B186008BD00BF16
:1001F0003045000830000020584500083800002035
:100200004045000834000020DC450008510100088A
:1002100048000020B84500085B01000844000020A9
:100220009445000861010008400000207045000866
:100230007D0100083C00002010222DE9F04389B028
:100240000DEB0200002104F0F7F8394BDFF8E480F1
:100250009A69394E42F010029A619A69374F02F05A
:1002600010020092009A9A69404642F020029A6178
:100270009A694FF4005102F020020192019A9A69A2
:10028000012542F004029A619A69002402F00402F6
:100290000292029A9A694FF0020942F008029A61AA
:1002A0009B69002203F008030393039B01F058F8B5
:1002B000304600224FF4987101F052F8002238467F
:1002C000032101F04DF84FF40053404604A94FF0CC
:1002D0000308CDE90435CDE9064900F06DFF302370
:1002E000304604A9CDE904350694CDF81C8000F011
:1002F00063FF384604A9CDE90485CDE9064800F03E
:100300005BFF4FF47043384604A9CDE904340695E9
:1003100000F052FF4FF48073304604A9CDE9043554
:10032000CDE9064900F048FF09B0BDE8F08300BF01
:10033000001002400010014000080140000C014084
:1003400010B590B01422002108A804F075F814220A
:10035000002101A804F070F802244FF48033012238
:10036000CDE90D43CDE906234FF4E01306A80A9228
:100370000F9301F003F808B172B6FEE70F23CDE941
:1003800001344FF480630390CDE90430214601A885
:1003900001F0B6F908B172B6FEE710B010BD08B5AD
:1003A00000F01CFEFFF7CCFFFFF746FF00F0D2FC89
:1003B00000F0ECFC00F006FD00F05EFB00F08AFCB3
:1003C00000F0AEFB02F0E2F8FFF7DEFE02F0F0F81C
:1003D000FEE772B6FEE70000282811D80C2803D8E3
:1003E00009280AD9012070470D380C4B80B2C34050
:1003F00003F0010383F00100704740F2FB23F6E7AE
:100400003A2804D838288CBF002001207047A0F576
:100410008270042894BF00200120704717F8FF0F56
:1004200007220021154B4FF480701A70144B19806D
:10043000144B1960144BA3F87C106421D982D98421
:100440001983198599853221A3F88200A3F88400C5
:10045000D9854FF47A701E21A3F87820A3F8802064
:10046000A3F87A200122988298845885A3F8561020
:1004700006480749A3F87E2002F077B80000002064
:10048000FC000020F800002068000020200300206D
:10049000FE00002038B50D4604460E4801F042FE2D
:1004A00064232A4621460B4801F0E3FD0A4B60B95C
:1004B0005A6801325A600022084B09491A800548DF
:1004C0000122BDE8384002F050B84EF6EE625A61A3
:1004D000F1E700BF2003002050000020FC000020B6
:1004E000FE000020B0F5857F07D8054B53F820307B
:1004F0001BB11B8800200B8070474FF0FF30704706
:1005000000460008B0F5857F06D8054B53F820302B
:1005100013B10020198070474FF0FF30704700BFC3
:1005200000460008024601444FF6FF7030B5094D01
:100530008A4200D130BD082412F8013B584040F3F4
:1005400000032B40013C83EA5003A4B298B2002C74
:10055000F5D1EDE701A0FFFF13B50F4B60F07F0071
:100560001B780C468DF801008DF8021068460321B7
:100570008DF80030FFF7D6FF084B8DF803001A699D
:10058000000A8DF80400013205216846C3E90424FD
:10059000FFF780FF02B010BD0000002050000020D7
:1005A000F0B58488458864BAA4B2631E7C2BC3B0BE
:1005B00006D90321042043B0BDE8F040FFF7CCBFCB
:1005C0000427254B254E1B786400642130688DF884
:1005D00008308DF809708DF80A4002F08BF8002879
:1005E00037D16ABA0325033492B202AFA4B21046DF
:1005F0000DF10601FFF776FF48B1306802F09DF873
:1006000002210420FFF7A8FF21E01D46EFE7BDF817
:10061000061001320B0AFB70AB1C9BB2A34239716E
:1006200092B207F10207F0D1306802F086F8214655
:1006300002A8FFF777FF02AB1855EB1C000A02AACD
:100640009BB2291DD05489B21046FFF723FF43B057
:10065000F0BD39463846D5E70000002030000020C4
:10066000F0B58488468864BAA4B2631E7C2BC3B0FC
:1006700006D90321084643B0BDE8F040FFF76CBF40
:100680000325254B254F1B786400642138688DF8BD
:1006900008308DF809508DF80A4002F02BF8002838
:1006A00036D172BA2C4492B202AEA4B210460DF109
:1006B0000601FFF717FF48B1386802F03EF8022143
:1006C0000320FFF749FF21E01D46EFE7BDF80610C4
:1006D00001320B0AF370AB1C9BB2A342317192B290
:1006E00006F10206F0D1386802F027F8214602A888
:1006F000FFF718FF02AB1855EB1C000A02AA9BB2C9
:10070000291DD05489B21046FFF7C4FE43B0F0BD96
:1007100004212846D5E700BF00000020300000205B
:1007200040F2091398420BD1012909D10022054B4F
:10073000A3F84C20A3F84E20A3F85020A3F88A2059
:10074000704700BF680000202DE9F047DFF8908176
:10075000037898F8002004469A428946C0B000D039
:10076000B3B9A9F10201204689B2FFF7DBFE04EB21
:10077000090313F8012C13F8023C43EA02238342D5
:1007800009D0584B9A6801329A604FF6FF725A614D
:1007900040B0BDE8F0876578062D27D005D8032D39
:1007A00018D0042D1CD0012129E0102DFBD1A688E2
:1007B000B4F8029076BAB6B2721E7A2AA37902D839
:1007C000B3EB460F43D00321102040B0BDE8F04703
:1007D000FFF7C2BE204640B0BDE8F047FFF740BF7C
:1007E000204640B0BDE8F047FFF7DABE6788A6882C
:1007F0007FBABFB23846FFF7EFFD10B90221284695
:10080000E3E7DFF8E4806421D8F8000001F072FF2C
:10081000002863D176BAB6B231463846FFF772FE89
:100820000346D8F8000013B101F087FFE6E701F0B6
:1008300084FF31463846FFF773FF21464A46684633
:1008400003F026FE49466846FFF724FEA0E7264F40
:100850006421386801F04EFF00283FD1054699FA1F
:1008600099F91FFA89F909EB050292B21046FFF7D0
:10087000B3FD20B9386801F060FF0221A4E7E179F7
:10088000237A104643EA0121FFF73CFE8246002806
:10089000F0D110460135FFF743FFABB2B34204F18C
:1008A0000204E0D3386801F048FF98F800300621D0
:1008B0008DF80030102368468DF801304FEA192377
:1008C0008DF802308DF803908DF804A08DF8056046
:1008D000FFF728FE0821ADF80600B4E704218EE7F3
:1008E0000000002050000020300000202DE9F041E1
:1008F000204E214F214D00F08FFB3188044659B125
:100900003B68C31A042B07D9032927D91C48FFF7D2
:100910001BFF2B6801332B601A4A1368E31AB3F5E7
:100920007A7F17D3DFF860804FF0FF31D8F80000EE
:10093000146001F0DFFE68B94FF47A73B4FBF3F48E
:10094000124B220CD8F80000A3F84220A3F8444030
:1009500001F0F3FE012001F089FECCE7EB680122F3
:100960000133EB60002306490948338001F0FDFDA7
:10097000D2E700BFFC000020F8000020500000205B
:10098000FE0000204C000020300000206800002005
:100990002003002008B502680E4B9A4218D100F0DF
:1009A0003BFB0D4A0D4B186013880D4801339BB279
:1009B000FF2B13808BBF00230A491380C91898BFEF
:1009C0000122BDE8084084BF0122064901F0CDBDE7
:1009D00008BD00BF00440040FC000020F8000020DB
:1009E00020030020FE000020114B07B59A690F215B
:1009F00042F001029A619A696FF0010002F001026F
:100A00000092009ADA6942F08052DA61DB690022D2
:100A100003F080530193019B00F016FB054A5368D5
:100A200023F0E06343F00073536003B05DF804FB10
:100A30000010024000000140FEE7FEE7FEE7FEE78F
:100A4000FEE7704708B500F0DBFA02F0CDFF0128A1
:100A500003D0BDE8084003F045BB08BD014801F0E4
:100A600021BC00BF68030020014801F01BBC00BF8F
:100A7000200300207047000010B500248AB0102227
:100A8000002102A803F0D8FC1022214606A8CDE9D7
:100A9000004403F0D1FC3F234FF080421F48C0E9DF
:100AA000002340F2FF338460C0E90334846100F026
:100AB0008BFF08B1FFF78DFC4FF48053174802A954
:100AC000029301F046F908B1FFF783FC134800F0E8
:100AD000D3FF08B1FFF77DFC002469460F48CDE93C
:100AE000004401F0CFF908B1FFF773FC01230022A5
:100AF0000A4806A9CDE907340694099401F094F850
:100B000008B1FFF766FC0422044806A901F08CF83E
:100B100008B1FFF75EFC0AB010BD00BF90020020D4
:100B200010B500248AB01022002102A803F084FC32
:100B30001022214606A8CDE9004403F07DFC2048A0
:100B4000204B8460C0E900344FF6FF738461C0E934
:100B5000033400F039FF08B1FFF73BFC4FF480533A
:100B6000174802A9029301F0F4F808B1FFF731FC2D
:100B7000134800F081FF08B1FFF72BFC0024694601
:100B80000F48CDE9004401F07DF908B1FFF721FCE1
:100B9000012300220A4806A9CDE9073406940994E6
:100BA00001F042F808B1FFF714FC0422044806A93A
:100BB00001F03AF808B1FFF70CFC0AB010BD00BF15
:100BC0000002002000080040102210B5044688B042
:100BD00000210DEB020003F02FFC2368B3F1804FDE
:100BE0001BD103F50433DA69194842F00102DA61D6
:100BF000DA6904A902F001020092009A9A6942F0AF
:100C000004029A619B6903F004030193019B03238F
:100C1000049300F0D1FA08B010BD0E4A9342FAD105
:100C20000D4B0E48DA6904A942F00402DA61DA6970
:100C300002F004020292029A9A6942F008029A6152
:100C40009B6903F008030393039BC0230493E0E72D
:100C5000000801400008004000100240000C014064
:100C60000268084B82B09A420AD103F50333DA696D
:100C700042F00202DA61DB6903F002030193019B97
:100C800002B070470004004010B5044686B0102240
:100C9000002102A803F0D0FB22680C4B9A4213D12A
:100CA00003F503339A690A4842F004029A619B698A
:100CB000C02203F004030193019B022302A9CDE9A2
:100CC0000223059300F078FA06B010BD000400403E
:100CD0000008014010B500248AB01C22214603A858
:100CE000CDE9014403F0A8FB1848194B8460C0E922
:100CF00000344FF6FF738461C0E9033400F090FEC6
:100D000008B1FFF766FB114801A9CDE9014401F0E4
:100D1000B9F808B1FFF75DFB002260230B4803A977
:100D2000CDE903320592079200F0FEFE08B1FFF70D
:100D300050FB0422054803A900F0F6FE08B1FFF7B6
:100D400048FB0248FFF7A0FF0AB010BD4802002090
:100D50000004004008B54FF4E1330A480A4AC0E9EC
:100D6000002300230C22C0E90233C0E905230361FC
:100D7000C36101F04FF918B1BDE80840FFF729BB86
:100D800008BD00BF680300200038014008B54FF4DB
:100D9000E1330A480A4AC0E9002300230C22C0E9D3
:100DA0000233C0E905230361C36101F033F918B1CF
:100DB000BDE80840FFF70DBB08BD00BF20030020C1
:100DC0000044004008B54FF4E1330A480A4AC0E93C
:100DD000002300230C22C0E90233C0E9052303618C
:100DE000C36101F017F918B1BDE80840FFF7F1BA87
:100DF00008BD00BFD80200200048004010B50446DE
:100E00008AB01022002106A803F016FB2368484A86
:100E1000934231D1474B4FF400749A69464842F4EB
:100E200080429A619A6906A902F480420092009A6F
:100E30009A6942F004029A619B6903F004030193EA
:100E4000019B0223CDE9064303230024099300F00C
:100E5000B3F94FF48063384806A9CDE90634089405
:100E600000F0AAF925202246052100F0EDF8252002
:100E700000F01AF90AB010BD304A93422CD12D4B24
:100E80000420DA6906A942F40032DA61DA69002442
:100E900002F400320292029A9A6942F004029A61C4
:100EA0009B6903F004030393039B0223CDE906032C
:100EB00003232148099300F07FF908231E4806A95F
:100EC000CDE90634089400F077F926202246052162
:100ED00000F0BAF82620CBE7194A9342CAD1154B45
:100EE00006A9DA69174842F48022DA61DA6902F465
:100EF00080220492049A9A6942F008029A619B69DE
:100F00004FF4806203F008030593059B0223CDE9AB
:100F100006230323099300F04FF900234FF40061E7
:100F20000848CDE9061306A9089300F045F9A1E7A2
:100F30000038014000100240000801400044004019
:100F400000480040000C0140FFF794FD0B480C499D
:100F50000C4A002302E0D458C4500433C4188C4215
:100F6000F9D3094A094C002301E013600432A2427C
:100F7000FBD303F069FAFFF712FA70470000002074
:100F800014000020604A00081400002000390020EE
:100F9000FEE7000038B50E4B05461A784FF47A7319
:100FA000B3FBF2F30B4A1068B0FBF3F000F08AF8E1
:100FB000044658B90F2D09D8024629464FF0FF3094
:100FC00000F042F82046044B1D6038BD0120FCE7CC
:100FD00008000020040000200C000020074A08B58B
:100FE0001368032043F01003136000F01BF80F2078
:100FF000FFF7D0FFFFF7F8FC002008BD00200240FB
:10100000034A044B11681B780B441360704700BF00
:10101000B003002008000020014B1868704700BF93
:10102000B003002007490302CA6803F4E06322F416
:10103000E0621204120C134343F0BF6343F4003325
:10104000CB60704700ED00E0154B30B5DC68C4F3B1
:101050000224C4F10703251D042B28BF0423062DF9
:101060004FF0FF3594BF0024033C05FA03F321EA57
:101070000303A54022EA0502A340002843EA020335
:10108000ACBF00F16040074A4FEA0313DBB2ABBFCD
:1010900000F5614000F00F0080F80033135430BDBC
:1010A00000ED00E014ED00E0002807DB012341091A
:1010B000034A00F01F00834042F82130704700BF10
:1010C00000E100E00138B0F1807F0BD24FF0E02367
:1010D000F021054A586182F8231000200722986108
:1010E0001A6170470120704700ED00E090F8212060
:1010F0000346022A06D0042282630120002283F8DC
:10110000202070470268C06B116821F00E01116049
:10111000116821F00101116001211A6C01FA02F23B
:101120004260002083F82110E8E7000008B590F83D
:101130002130022B03D004238363012008BD036800
:101140001A6822F00E021A601A6822F001021A6070
:10115000174A93421FD0143293421ED01432934246
:101160001DD0143293421DD0143293421DD014323C
:10117000934214BF4FF080734FF480130D4A5360B5
:10118000012380F82130002380F82030436B03B125
:1011900098470020D2E70123F0E71023EEE74FF451
:1011A0008073EBE74FF48053E8E74FF48033E5E7D3
:1011B00008000240000002402DE9F74F00244FF0E4
:1011C0000F0E2646DFF884C1614B00F104080A685F
:1011D00032FA06F502D103B0BDE8F08F012505FA19
:1011E00006F702EA070537EA020276D14A68032ABF
:1011F00007D8013A022A00F28380DFE802F09196D4
:101200009C00122A00F0948069D8112A00F08A808C
:10121000FF2D94BF8146C1464FEA8602D9F800707F
:1012200088BF203A0EFA02FA27EA0A0704FA02F205
:101230001743C9F80070D1F8049019F0805F4CD0C2
:10124000DCF8182026F0030742F00102CCF8182041
:10125000DCF8182007F1804702F00102019207F53F
:10126000803706F0030A019A4FEA8A0ABA680EFA32
:101270000AFB22EA0B0B374A904260D002F58062EB
:1012800090425ED002F5806290425CD002F58062AE
:10129000904214BF0422032202FA0AF242EA0B022D
:1012A000BA609A6819F4801F14BF2A43AA439A604F
:1012B000DA6819F4001F14BF2A43AA43DA605A6897
:1012C00019F4003F14BF2A43AA435A601A6819F45C
:1012D000803F14BF2A43AA431A60013677E7DFF83C
:1012E00078904A450CD014D8A9F580194A4507D002
:1012F00009F570294A4503D0A9F580194A4587D1D7
:101300008A68D2B1012A4FF008040CBF0761476117
:101310007EE7DFF848904A45F2D009F58039EDE7DD
:10132000CC6875E7CC68043472E7CC6808346FE7A2
:10133000CC680C346CE700246AE7042468E70022D8
:10134000AAE70122A8E70222A6E700BF0010024098
:10135000000401400008014000002210000031108C
:101360000AB1016170470904FBE7C36801EA03029F
:1013700021EA030141EA0241016170472DE9F3418D
:10138000054638B30368DB0710D42B689F075ED48B
:101390002B68190700F195802B685A0700F1C1806E
:1013A000EB69002B40F02C81002029E0904C636811
:1013B00003F00C03042B07D0636803F00C03082B25
:1013C0000AD16368DE0307D523689C03DDD56B680B
:1013D000002BDAD1012013E06B68B3F5803F12D106
:1013E000236843F480332360FFF716FE0646236824
:1013F0009803CAD4FFF710FE801B6428F7D9032096
:1014000002B0BDE8F0819BB9236823F480332360E8
:10141000236823F480232360FFF7FEFD064623683C
:101420009903B2D5FFF7F8FD801B6428F7D9E6E7EA
:10143000B3F5A02F236803D143F480232360CFE7C3
:1014400023F480332360236823F48023CBE7684CA4
:10145000636813F00C0F07D0636803F00C03082BCC
:1014600010D16368DA030DD423689B0702D52B697A
:10147000012BAFD123686A6923F0F80343EAC20362
:10148000236085E72A695B4B6AB101221A60FFF786
:10149000C3FD064623689F07ECD4FFF7BDFD801B04
:1014A0000228F7D9ABE71A60FFF7B6FD06462368B6
:1014B00098077FF56DAFFFF7AFFD801B0228F6D9C7
:1014C0009DE7AA694A4E4B4BE2B10122C3F8802442
:1014D000FFF7A2FD0446736A9B070DD54FF4FA523D
:1014E000454B1B68B3FBF2F3019300BF019B5A1EEF
:1014F0000192002BF9D14FE7FFF78EFD001B022868
:10150000E9D97CE7C3F88024FFF786FD0446736AB7
:101510009F077FF541AFFFF77FFD001B0228F6D93B
:101520006DE7334CE369D80024D40127E36943F025
:101530008053E361E36903F080530093009B2F4ED7
:101540003368D90518D5EB68012B26D1236A43F0FF
:1015500001032362FFF760FD41F288380646236AE3
:101560009B073FD5002F3FF41BAFE36923F0805367
:10157000E36115E70027E2E7336843F480733360E3
:10158000FFF74AFD80463368DA05DCD4FFF744FDF7
:10159000A0EB08006428F6D931E7ABB9236A41F221
:1015A000883823F001032362236A23F004032362B3
:1015B000FFF732FD0646236A9807D3D5FFF72CFDC7
:1015C000801B4045F7D91AE7052B236A03D143F066
:1015D00004032362BAE723F001032362236A23F0A2
:1015E0000403B6E7FFF718FD801B4045B7D906E7AF
:1015F0000010024000004242040000200070004041
:101600002A4C626802F00C02082A3ED00022022B0B
:10161000274B1A662CD1FFF7FFFC06462368990179
:1016200020D42B6AB3F5803F05D16268A96822F403
:1016300000320A436260696A62680B4322F47412E2
:101640001343012263601A4B1A66FFF7E5FC054657
:1016500023689A013FF5A8AEFFF7DEFC401B022885
:10166000F6D9CCE6FFF7D8FC801B0228D6D9C6E60F
:10167000FFF7D2FC054623689B017FF595AEFFF787
:10168000CBFC401B0228F6D9B9E6012B3FF4A2AEF1
:1016900060682B6A00F480329A427FF49BAE6B6ADA
:1016A00000F47010C01A18BF0120A9E60010024013
:1016B000000042420D4A536803F00C01082912D180
:1016C0000B48C3F38341DB03405C09D55368094AE7
:1016D000C3F340435043084AD35CB0FBF3F0704778
:1016E000064B584370470348704700BF0010024044
:1016F000464A000800127A00444A000800093D00EA
:101700002DE9F0410D46044610B90120BDE8F081F5
:10171000444A136803F007038B4228D321688E07DD
:1017200030D4CA0743D43F4A136803F00703AB42DF
:1017300065D822683C4D12F0040F6CD1130706D512
:101740006B68226923F4605343EAC2036B60FFF7BE
:10175000B1FF6B68354AC3F30313D35CD840344BF5
:101760001860344B1868FFF715FC0020CEE71368AB
:1017700023F007030B431360136803F007038B4246
:10178000C3D1CBE7284B11F0040F1EBF5A6842F4B7
:10179000E0625A60080742BF5A6842F460525A60D9
:1017A0005A68A06822F0F00202435A60B9E7626802
:1017B0001D4E012A33681AD113F4003FA5D0736877
:1017C00041F2883823F0030313437360FFF724FCCE
:1017D00007467368626803F00C03B3EB820FA2D074
:1017E000FFF71AFCC01B4045F3D903208EE7022AFD
:1017F00002D113F0007FE1E713F0020FDEE7136878
:1018000023F007032B431360136803F00703AB4275
:101810007FF47BAF8DE76B68E16823F4E0630B43F3
:101820006B608BE70020024000100240344A000841
:10183000040000200C000020044B054A5B68C3F341
:101840000223D35C034A1068D8407047001002405E
:101850002C4A000804000020044B054A5B68C3F3CF
:10186000C223D35C034A1068D8407047001002407E
:101870002C4A000804000020036A026A70B522F0B6
:1018800001020262446882690D6822F073022A43F1
:101890008D6823F002032B430A4DA8420BD1CD687B
:1018A00023F008032B4324F44074D1E90556354353
:1018B00023F004032C43446082614A68426303625C
:1018C00070BD00BF002C0140036A026A70B522F4AB
:1018D000807202624468C2690D6822F073022A4372
:1018E0008D6823F4007343EA05230B4DA8420DD104
:1018F000CD6823F4006343EA052324F44054D1E97E
:101900000556354323F4806344EA05144460C261FC
:101910004A68C263036270BD002C0140036A026A18
:1019200030B522F4805202624468C2690D6822F424
:10193000E64242EA05228D6823F4005343EA053368
:10194000064DA84202BF4D6924F4804444EA851440
:101950004460C2614A680264036230BD002C0140E9
:1019600070470000174A036890420AD0B0F1804FD8
:1019700007D0A2F59432904203D002F580629042E3
:1019800007D14A6823F070031343CA6823F44073F5
:1019900013434A6923F08003134303608B68C362D7
:1019A0000B688362074B984204BF0B6903630123F2
:1019B00043610369DB0742BF036923F0010303614D
:1019C000704700BF002C014010B5044630B390F8BA
:1019D0003D3003F0FF021BB980F83C20FFF7F4F81C
:1019E0000223206884F83D30211DFFF7BBFF01234F
:1019F000002084F8463084F83E3084F83F3084F884
:101A0000403084F8413084F8423084F8433084F820
:101A1000443084F8453084F83D3010BD0120FCE7A7
:101A200010B5044630B390F83D3003F0FF021BB907
:101A300080F83C20FFF714F90223206884F83D3039
:101A4000211DFFF78FFF0123002084F8463084F822
:101A50003E3084F83F3084F8403084F8413084F8D8
:101A6000423084F8433084F8443084F8453084F8B8
:101A70003D3010BD0120FCE710B5044630B390F8AE
:101A80003D3003F0FF021BB980F83C20FFF768FFF0
:101A90000223206884F83D30211DFFF763FF0123F6
:101AA000002084F8463084F83E3084F83F3084F8D3
:101AB000403084F8413084F8423084F8433084F870
:101AC000443084F8453084F83D3010BD0120FCE7F7
:101AD000036A026A70B522F01002026244688269E9
:101AE0000D6822F4E64242EA05228D6823F02003C5
:101AF00043EA05130B4DA8420DD1CD6823F08003B6
:101B000043EA051324F44064D1E90556354323F034
:101B1000400344EA8504446082614A688263036248
:101B200070BD00BF002C014038B590F83C30044631
:101B3000012B4FD00120082A84F83C003AD006D867
:101B4000BAB1042A26D0002384F83C3038BD0C2AD0
:101B5000F9D12068FFF7E2FEC3690A6943F4006324
:101B6000C361C36923F48063C361C36943EA022389
:101B70002EE02068FFF780FE83690A6943F00803BE
:101B80008361836923F00403836183691343836161
:101B90000020D8E72068FFF79BFF83690A6943F4B8
:101BA00000638361836923F480638361836943EA0B
:101BB0000223ECE72068FFF787FEC3690A6943F058
:101BC0000803C361C36923F00403C361C3691343FA
:101BD000C361DDE70220B9E770B5056A046A114EFA
:101BE00024F001040462B042846916D0B0F1804F41
:101BF00013D0A6F59436B0420FD006F58066B042F9
:101C00000BD044F0010263F3071201F00A0125F042
:101C10000A0319438261016270BD24F00304224368
:101C2000F1E700BF002C0140F8B590F83C300546C4
:101C3000012B0C4600F081800120082A85F83C0029
:101C40005BD006D842B3042A35D0002385F83C3057
:101C5000F8BD0C2AF9D1D1E900272B68CE68186AA3
:101C6000196A120321F480511962D96920F40050D5
:101C700021F4407141EA072102F4005266F30F316A
:101C80000243D9611A62DA69A16822F44062DA611A
:101C9000DA6942EA01224EE02868CB6806C9FFF7FC
:101CA0009BFF8369A26823F00C038361836913435C
:101CB00083610020C9E72B68D1E90027186ACE6844
:101CC000196A120121F010011962996920F0A0002F
:101CD00021F4407141EA072102F0A00266F30F31BE
:101CE000024399611A629A69A16822F440629A617A
:101CF0009A6942EA01229A61DBE72B68D1E9002167
:101D0000186A1E6AE76826F480761E62DE6912028F
:101D100026F00306314320F4007002F4007267F3EA
:101D200007110243D9611A62DA69A16822F00C0234
:101D3000DA61DA690A43DA61BBE7022088E710B5A5
:101D400084680A4324F47F4442EA032222438260E7
:101D500010BD38B590F83C300446012B4FF002001E
:101D600000F08E80012284F83D00206884F83C2039
:101D7000836823F47F4323F0770383600B68602B31
:101D80004FD032D8402B64D016D8202B0DD00AD893
:101D900033F0100109D0012384F83D30002384F88A
:101DA0003C30104638BD302BF5D1826822F07002ED
:101DB000134343F0070328E0502BECD14A68CD6869
:101DC000016A036A21F00A0123F0010303628369B7
:101DD0000A4323F0F00343EA051383610262836838
:101DE00023F0700343F057030FE0B3F5805F0DD08D
:101DF000B3F5005F0CD0702BCDD1CB68D1E90121B8
:101E0000FFF79DFF836843F0770383600022C2E7FA
:101E1000CB68D1E90121FFF792FF836843F4804347
:101E2000F3E7036A026A4D6822F01002C968026291
:101E3000826923F0A00322F4704243EA051342EAC8
:101E4000013282610362836823F0700343F0670309
:101E5000DBE74A68CD68016A036A21F00A0123F0D2
:101E60000103036283690A4323F0F00343EA051385
:101E700083610262836823F0700343F04703C4E781
:101E800002468EE730B590F83C300246012B4FF009
:101E9000020022D0136882F83D005C680D6824F0CF
:101EA00070042C4398685C600C4CA3420AD0B3F1D8
:101EB000804F07D0A4F59434A34203D004F5806486
:101EC000A34204D1496820F08000014399600123B6
:101ED000002082F83D3082F83C0030BD002C0140EB
:101EE000026802F10C0353E8003F23F490730C32B4
:101EF00042E8003102680029F2D102F1140353E8EC
:101F0000003F23F0010302F1140C4CE800310029DA
:101F1000F3D1036B012B0BD102F10C0353E8003F0B
:101F200023F0100302F10C0C4CE800310029F3D12E
:101F3000202380F8423000230363704710B5044625
:101F40000368C1681A6922F440520A431A61826820
:101F50000069D9680243606921F4B05121F00C0195
:101F600002430A43DA605A69A16922F440720A43C3
:101F70005A610E4A934215D1FFF76EFC1923434371
:101F8000626820689200B3FBF2F36422B3FBF2F1C3
:101F900002FB11331B013233B3FBF2F303EB0113EA
:101FA000836010BDFFF748FCE8E700BF0038014040
:101FB000F7B505460C4617461E462A68136834EAEC
:101FC000030301D1002021E0701CF7D0FFF724F8B3
:101FD000C01B86421CD3DEB12B68DA685107ECD5F2
:101FE000802CEAD0402CE8D01A681207E5D50024EE
:101FF00001941A68284601925B680193019BFFF7E0
:102000006FFF082301206B6485F8404003B0F0BDEA
:102010000320FBE710B5044648B390F8413003F0C5
:10202000FF021BB980F84020FEF7E8FE2423226857
:1020300084F84130D368204623F40053D360FFF77F
:102040007DFF236800201A6922F490421A615A69C0
:1020500022F02A025A61DA6842F40052DA60202340
:10206000606484F8413084F84230606310BD012020
:10207000FCE72DE9F843984690F841300446202BC0
:102080000E4617463FD100293FD0002A3DD02123DC
:102090000025456480F84130FEF7BEFFA368814605
:1020A000B3F5805FA784E78403D123690BB9354674
:1020B0001E46E38C9BB253B943464A464021204614
:1020C000FFF776FF202350B984F841300AE04346F9
:1020D0004A4680212046FFF76BFF28B120230320CA
:1020E00084F84130BDE8F88322684EB935F8023BE8
:1020F000C3F308035360E18C013989B2E184D8E766
:1021000016F8013BF6E70220ECE70120EAE770470A
:10211000704708B50023406AC385C384FFF7F8FF02
:1021200008BD704710B50446226802F10C0353E85D
:10213000003F23F490730C3242E8003123680029F9
:10214000F2D103F1140252E8002F22F0010203F150
:10215000140040E800210029F3D1226B012A0BD1A1
:1021600003F10C0252E8002F22F0100203F10C00E0
:1021700040E800210029F3D15A6912F0400220D032
:1021800003F1140252E8002F22F0400203F1140080
:1021900040E800210029F3D1E06B48B10C4B4363C8
:1021A000FEF7C4FF10B1E06B436B9847002010BDF1
:1021B0002023E08584F8423020632046FFF7B1FFFA
:1021C000F4E72023E28584F842302263F5E700BF7C
:1021D000D521000808B520220023406AC38580F875
:1021E00042200363FFF79DFF08BD704790F842301F
:1021F00007B5222B42D181680268B1F5805F836AFE
:102200003FD1016900293FD15268C2F3080223F887
:10221000022B8362C38D013B9BB2C385002B2DD162
:102220000268D16821F02001D160D16821F4807169
:10223000D160516921F001015161202280F84220D2
:102240004363026B012A026828D1036302F10C0385
:1022500053E8003F23F0100302F10C0C4CE800316E
:102260000029F3D11368DB0605D5019113680193AA
:1022700053680193019B818DFFF7B7FF03B05DF8B1
:1022800004FB39B9016929B95268D2B21A70836A5C
:102290000133BEE7526802F07F02F7E7FEF77AFBF0
:1022A000ECE70000036873B51A6804461607D9689E
:1022B0005D6908D1960668D58D0666D502B0BDE881
:1022C0007040FFF793BF05F0010001F490750543DE
:1022D0005BD0D60705D5CD0542BF636C43F0010343
:1022E0006364530704D518B1636C43F0020363645D
:1022F000960704D518B1636C43F0040363641507B3
:1023000007D501F0200303431EBF636C43F00803AD
:102310006364636C002B32D0920604D58B0602D521
:102320002046FFF763FF266820467369626C03F05E
:10233000400302F0080253EA020522D0FFF7D0FD65
:1023400073695E0618D5226802F1140353E8003F52
:1023500023F04003143242E800310029F3D1E06B4E
:1023600050B1744B4363FEF7E1FE40B1E06B436B49
:1023700002B0BDE8704018472046FFF7C9FE02B022
:1023800070BDFFF7C5FE6564F9E7206B012840F0DA
:102390009480D50640F19180C80640F18E800022DD
:1023A00001921A6801925A680192019A5A6952067A
:1023B0004DD5E16B0A68526892B2002ADFD0A08D39
:1023C0009042DCD9E2858A69202A36D003F10C02DA
:1023D00052E8002F22F4807203F10C0040E8002143
:1023E0000029F3D103F1140252E8002F22F0010278
:1023F00003F1140040E800210029F3D103F1140295
:1024000052E8002F22F0400203F1140040E80021BE
:102410000029F3D1202284F84220216303F10C0229
:1024200052E8002F22F0100203F10C0040E80021D6
:102430000029F3D1E06BFEF759FE02236363E38DBD
:10244000A18DC91A89B22046FFF7CFFE97E7E28D2A
:10245000E08DA18D80B292B2002890D0891A89B205
:1024600000298CD003F10C0252E8002F22F4907264
:1024700003F10C0545E800200028F3D103F1140214
:1024800052E8002F22F0010203F1140545E8002074
:102490000028F3D1202284F84220206303F10C02AB
:1024A00052E8002F22F0100203F10C0545E800204D
:1024B0000028F3D102236363C5E7160628D50D066D
:1024C00026D594F84120212A7FF459AFA168226AC9
:1024D000B1F5805F17D12169A9B932F8021BC1F3A8
:1024E000080159602262E28C013A92B2E284002A29
:1024F0007FF445AFDA6822F08002DA60DA6842F0F1
:102500004002DA603BE7511C216212785A60EAE728
:1025100050067FF534AF4A067FF531AFDA682046C2
:1025200022F04002DA60202384F84130FFF7EFFD0B
:1025300025E700BF132100080023C285436422233E
:102540008285026980F84230816203681AB1DA68D4
:1025500042F48072DA605A69002042F001025A6146
:10256000DA6842F02002DA60704770B490F8426096
:10257000202E06D141B13AB10024046370BCFFF7AC
:10258000DBBF022070BC70470120FBE7EFF305833F
:102590002BB9064B186828B901221A6070476FF0F2
:1025A000050070474FF0FF30704700BF6C0A0020F5
:1025B00010B5EFF305845CB9084B1A68012A0AD1FB
:1025C000074AD47702221A6000F080FF204610BD2F
:1025D0006FF00500FBE74FF0FF30F8E76C0A0020D2
:1025E00000ED00E0F0B51446002287B00B460592DE
:1025F000EFF30582FAB9F0B154B3A56925B1691EAC
:10260000372902D9002017E018256268D207F9D4CB
:1026100066699EB1B2082168D4E9027C87B1BCF139
:102620005B0F08D9246934B12EB1CDE9014700957B
:1026300000F0E5FE0590059807B0F0BD8022EAE7BE
:10264000BCF1000FF7D12469002CF4D10C4601E055
:102650001825802205A9CDE9005192B2214600F04B
:1026600006FF01281CBF00230593E4E708B5EFF33C
:10267000058222B908B101F089F8002008BD6FF089
:102680000500FBE7F8B50546EFF3058717B1002411
:102690002046F8BD20B346683307F8D4D0E90213CA
:1026A00006F0010699B14F2BF1D9BEB1042000F01C
:1026B000E5FA04460028EAD037462D682946204628
:1026C00000F006FD002FE3D044F00104E0E7002B0A
:1026D000DDD12EB1042000F005FBEAE70120E6E79A
:1026E000012000F0FFFA04460028D0D0002DE5D0EC
:1026F0000026E1E738B503460C4620F0010003F060
:102700000102EFF3058595B9012B13D962B100F0F1
:10271000BEFC012801D1002038BD002C14BF6FF091
:1027200001006FF00200F7E700F0F4FBF1E76FF053
:102730000500F1E76FF00300EEE7024608B520F070
:10274000010002F00103EFF3058179B9012A10D9E4
:102750003BB100F0A8FA01280CBF00206FF0020086
:1027600008BD1A46194600F0D7F9F4E76FF00500E6
:10277000F6E76FF00300F3E7F7B505460E4614469B
:10278000EFF305871FB10025284603B0F0BD0028F0
:10279000F9D00029F7D0DAB1D2E9023283B14F2A59
:1027A000F1D92269002AEED04D436669AE42EAD3E0
:1027B000009700F03CF905460028E4D0246811E0B9
:1027C000002AE0D12369002BDDD16369002BDAD127
:1027D00028460022314600F078F905460028D2D07C
:1027E000002CEBD12146284600F072FCCCE700001B
:1027F000034B0360034B0B6080231360704700BFE3
:10280000100A002010080020034B0360034B0B60EC
:102810004FF4807313607047B4070020B4030020A6
:102820004FF0FF3200F10803C0E902234360036167
:1028300000230360704700230361704743689A6870
:102840004B608A60516099600368086101330360DE
:10285000704730B50C68631C0AD103695A684A6036
:1028600091608B605960036808610133036030BD7B
:1028700000F10802134652681568A542FAD9EDE73F
:102880000369D0E901128A6051605968814208BF2A
:102890005A60002202611A68013A1A60186870478B
:1028A00010B5044601F0C6FBA46B01F0E3FBB4FADB
:1028B00084F0400910BD70B51646026C0446856B65
:1028C00042B906689EB9806801F0DCF8A66001355F
:1028D000A56370BD6EB9406801F0DAFD6368226CD3
:1028E0001344A2686360934224BF2368636000209E
:1028F000EDE7C06801F0CCFD226CE36851429B1A01
:102900002268E36093423EBFA3685B18E360022E37
:10291000EDD10DB1013DEAE72846D8E703461A6C30
:10292000084610B462B1DC68996814448C4228BF30
:102930001968DC6028BFD960D96810BC01F0A8BD57
:1029400010BC704770B5044601F074FB94F8455014
:1029500004F124066DB2002D01DD636AB3B9FF23D3
:1029600084F8453001F086FB01F064FB94F8445094
:1029700004F110066DB2002D01DD23697BB9FF2340
:1029800084F84430BDE8704001F074BB304600F07C
:1029900097FF08B101F01CF8013D6DB2DBE730464E
:1029A00000F08EFF08B101F013F8013D6DB2E2E7CF
:1029B00038B50D46044640B94FF0500383F31188F3
:1029C000BFF36F8FBFF34F8FFEE701F033FBD4E906
:1029D0000F314B432268D0185B1AA0606260002060
:1029E0001A44FF23A063E26084F8443084F8453041
:1029F000A5B9236973B104F1100000F061FF48B17B
:102A00004FF0E0234FF08052C3F8042DBFF34F8FF7
:102A1000BFF36F8F01F02EFB012038BD04F11000D1
:102A2000FFF7FEFE04F12400FFF7FAFEF2E737B5E8
:102A30000D461C4640B94FF0500383F31188BFF395
:102A40006F8FBFF34F8FFEE743B94FF0500383F30F
:102A50001188BFF36F8FBFF34F8FFEE74AB191B973
:102A60004FF0500383F31188BFF36F8FBFF34F8F85
:102A7000FEE741B14FF0500383F31188BFF36F8F2E
:102A8000BFF34F8FFEE750230193019B502B08D0DB
:102A90004FF0500383F31188BFF36F8FBFF34F8F55
:102AA000FEE70121002D08BF2246C4E90F0584F886
:102AB000461020462260019BFFF77AFF20469DF8D2
:102AC000183084F84C3003B030BDF8B50D461746C9
:102AD000064640B94FF0500383F31188BFF36F8F60
:102AE000BFF34F8FFEE74843503001F0CFFB044661
:102AF00070B1002380F8463065B100F15003012128
:102B00002046C4E90F652360FFF752FF84F84C703C
:102B10002046F8BD0346F2E72DE9FF410F461E4669
:102B20000446019240B94FF0500383F31188BFF37C
:102B30006F8FBFF34F8FFEE751B9036C43B14FF076
:102B4000500383F31188BFF36F8FBFF34F8FFEE7FE
:102B5000022E0BD1E36B012B08D04FF0500383F30F
:102B60001188BFF36F8FBFF34F8FFEE700F03CFF7C
:102B7000054620B300254FF0000801F05BFAA26B78
:102B8000E36B9A4227D2324639462046FFF793FE3E
:102B9000636A1BB104F1240000F092FE48B14FF0CB
:102BA000E0234FF08052C3F8042DBFF34F8FBFF3E3
:102BB0006F8F01F05FFA012004B0BDE8F081019B46
:102BC000002BD8D04FF0500383F31188BFF36F8FE1
:102BD000BFF34F8FFEE7022ED5D0019B1BB901F04A
:102BE00049FA0020E8E715B902A800F0A9FE01F0B3
:102BF00041FA00F0B1FC01F01DFA94F84430FF2BCB
:102C000008BF84F8448094F84530FF2B08BF84F84F
:102C1000458001F02FFA01A902A800F09DFE38BB03
:102C200001F008FAA26BE36B9A420ED101F022FA8E
:102C3000019904F1100000F009FE2046FFF782FE22
:102C400000F030FD48B1012597E701F013FA204666
:102C5000FFF778FE00F026FDF5E74FF0E0234FF098
:102C60008052C3F8042DBFF34F8FBFF36F8FEAE795
:102C70002046FFF767FE00F015FDB2E7002213B50E
:102C80000B46009011460120FFF7D1FE044638B1F3
:102C900000231A46194683600360C360FFF73CFFB8
:102CA000204602B010BD38B5044640B94FF050037D
:102CB00083F31188BFF36F8FBFF34F8FFEE78568F3
:102CC00000F08CFE85420BD1E368013BE3600BB161
:102CD000012038BD1A4619462046FFF71DFFF7E7C9
:102CE0000020F6E770B50646502001F0CFFA044602
:102CF00098B10025012180F84650C0E90F15006009
:102D0000FFF756FE2B462A462946204684F84C609B
:102D1000A5602560E560FFF7FFFE204670BD2DE948
:102D2000F843894617461E46044640B94FF0500303
:102D300083F31188BFF36F8FBFF34F8FFEE751B955
:102D4000036C43B14FF0500383F31188BFF36F8FCF
:102D5000BFF34F8FFEE7022E0BD1E36B012B08D0A0
:102D60004FF0500383F31188BFF36F8FBFF34F8F82
:102D7000FEE701F037FAEFF311884FF0500383F3C9
:102D80001188BFF36F8FBFF34F8FA26BE36B9A4233
:102D900001D3022E1ED194F84550324649462046B2
:102DA0006DB2A36BFFF787FD6B1C0ED1636A3BB15D
:102DB00004F1240000F084FD10B10FB101233B6049
:102DC000012088F31188BDE8F88301356DB284F8DD
:102DD0004550F5E70020F4E72DE9FF410E46044693
:102DE000019240B94FF0500383F31188BFF36F8F06
:102DF000BFF34F8FFEE751B9036C43B14FF050035F
:102E000083F31188BFF36F8FBFF34F8FFEE700F09E
:102E1000EBFD054618B300254FF0000801F00AF954
:102E2000A76B47B331462046013FFFF777FDA76305
:102E3000236973B104F1100000F042FD48B14FF076
:102E4000E0234FF08052C3F8042DBFF34F8FBFF340
:102E50006F8F01F00FF9012004B0BDE8F081019BF4
:102E6000002BD9D04FF0500383F31188BFF36F8F3D
:102E7000BFF34F8FFEE7019B1BB901F0FBF8002069
:102E8000EAE715B902A800F05BFD01F0F3F800F0E5
:102E900063FB01F0CFF894F84430FF2B08BF84F8AF
:102EA000448094F84530FF2B08BF84F8458001F03A
:102EB000E1F801A902A800F04FFD00BB2046FFF792
:102EC000EFFCB0B1019904F1240000F0BFFC2046F2
:102ED000FFF738FD00F0E6FB48B94FF0E0234FF074
:102EE0008052C3F8042DBFF34F8FBFF36F8F0125BE
:102EF00094E72046FFF726FD00F0D4FBF7E72046D5
:102F0000FFF720FD00F0CEFB2046FFF7C9FC0028AC
:102F1000EDD0B4E7F0B585B00446019140B94FF06B
:102F2000500383F31188BFF36F8FBFF34F8FFEE71A
:102F3000056C45B14FF0500383F31188BFF36F8FD9
:102F4000BFF34F8FFEE700F04FFD064620B32E463D
:102F5000002701F06FF8A36B53B3013BA363236811
:102F600013B900F01FFEA060236973B104F11000D3
:102F700000F0A6FC48B14FF0E0234FF08052C3F8B8
:102F8000042DBFF34F8FBFF36F8F01F073F8012053
:102F900005B0F0BD3546DBE7019B002BFAD04FF0C2
:102FA000500383F31188BFF36F8FBFF34F8FFEE79A
:102FB000019B53B9002D66D04FF0500383F3118865
:102FC000BFF36F8FBFF34F8FFEE716B902A800F073
:102FD000B7FC01F04FF800F0BFFA01F02BF894F8BD
:102FE0004430FF2B08BF84F8447094F84530FF2B21
:102FF00008BF84F8457001F03DF801A902A800F06F
:10300000ABFC50BB2046FFF74BFC00B323683BB939
:1030100001F010F8A06800F0F7FC054601F02AF86E
:10302000019904F1240000F011FC2046FFF78AFC0E
:1030300000F038FB48B94FF0E0234FF08052C3F85E
:10304000042DBFF34F8FBFF36F8F012681E720461A
:10305000FFF778FC00F026FBF7E72046FFF772FC4D
:1030600000F020FB2046FFF71BFC0028EDD065B1E7
:1030700000F0E0FF616A19B1236B1968C1F13801F2
:10308000A06800F041FD00F0F5FF002080E770B57A
:103090000D46044640B94FF0500383F31188BFF347
:1030A0006F8FBFF34F8FFEE7866800F097FC864274
:1030B00004D10120E3680133E36070BD2946204656
:1030C000FFF728FF0028F8D0E3680133E360F4E756
:1030D000002330B5064A52F8335002EBC3041DB941
:1030E00042F83310606030BD0133082BF3D1FAE7AA
:1030F000700A002070B504460D46164600F09AFF8F
:1031000094F84430FF2B04BF002384F8443094F833
:103110004530FF2B04BF002384F8453000F0AAFFA0
:10312000A36B2BB93246294604F1240000F0A8FB1A
:103130002046BDE87040FFF705BC00002DE9F041D6
:10314000044600F077FF304B304E1A68304F0132A2
:103150001A603568002D4BD134601B68012B1FD1DC
:10316000B84640460135FFF75BFB382D08F11408DF
:10317000F7D1DFF8A080284D4046FFF751FB2846E5
:10318000FFF74EFB2548FFF74BFB2548FFF748FBB1
:103190002448FFF745FB244BC3F80080234B1D60F8
:1031A0001420234A136801331360224A63641168B0
:1031B000E36A8B4200FB037004F1040188BF1360D3
:1031C000FFF73CFB00F056FF1B4B1B6873B13368E5
:1031D000DA6AE36A9A4209D24FF0E0234FF0805254
:1031E000C3F8042DBFF34F8FBFF36F8FBDE8F0819D
:1031F000114B1A68E36A002AD2D13268D26A9A4225
:1032000098BF3460CCE700BFD40A0020A80F00208C
:10321000480B0020340B0020200B0020040B002062
:10322000F00A0020D80A00201C0B0020180B0020F8
:10323000B80A0020CC0A0020C80A0020F8B50646CB
:10324000144B154D1C6828680F460430FFF718FB17
:10325000731C07D137B1296810480431BDE8F84024
:10326000FFF7ECBA2B68A4195C6007D30C4B186805
:103270002968BDE8F8400431FFF7EBBA094B18683C
:1032800029680431FFF7E5FA074B1A68A24288BFA4
:103290001C60F8BDD00A0020A80F0020D80A00202A
:1032A000180B00201C0B0020B40A0020064A1368EB
:1032B0001968064B19B94FF0FF321A60704712684F
:1032C000D268D2685268F8E71C0B0020B40A0020CC
:1032D00010B590F8593004463BB9006B01F06EF818
:1032E0002046BDE8104001F069B8012BF9D0022B4F
:1032F00008D04FF0500383F31188BFF36F8FBFF3F3
:103300004F8FFEE710BD000080B5134C134F144DD6
:10331000236873B9134B1B68012BF8D94FF0E023D6
:103320004FF08052C3F8042DBFF34F8FBFF36F8F60
:10333000EDE700F07FFEFB68DE68301DFFF7A0FAC6
:103340002B68013B2B602368013B236000F092FE59
:103350003046FFF7BDFFDBE7EC0A0020F00A002053
:10336000D40A0020480B00202DE9F0470D46DDE986
:103370000994960032460746A521206B984601F035
:103380005BF8236B043E1E4426F00706A5B36B1EB4
:1033900004F133020F3513F8011F02F8011F09B1C0
:1033A000AB42F8D1002384F84330089D4FF0000A67
:1033B000372D28BF3725201DE562E564C4F850A0ED
:1033C000FFF739FAC5F1380504F11800FFF733FAB1
:1033D000C4F854A04246394630462461A56164626F
:1033E00084F858A000F002FE2060B9F1000F01D06F
:1033F000C9F80040BDE8F08784F83450D5E770B5CF
:1034000086B0DDE90B5445B94FF0500383F31188C2
:10341000BFF36F8FBFF34F8FFEE744B94FF05003F8
:1034200083F31188BFF36F8FBFF34F8FFEE75C26E6
:103430000596059E5C2E08D04FF0500383F311884B
:10344000BFF36F8FBFF34F8FFEE72563022584F82C
:10345000595004AD01950A9D02940095059EFFF711
:1034600083FF2046FFF76AFE049806B070BD2DE981
:10347000F043074685B0900088461646994600F00E
:1034800005FF054620B94FF0FF3005B0BDE8F083D9
:103490005C2000F0FBFE044698B1002380F8593010
:1034A0000D9B056301930C9B3246414602900093AD
:1034B00038464B46FFF758FF2046FFF73FFE0120F6
:1034C000E3E7284600F07AFFDDE7000010B50024AE
:1034D00088B007AA06A905A8CDE90544FFF788F931
:1034E000059B079A0293069B1649CDE900431648AF
:1034F0002346FFF784FF18B300F0B2FB012814D174
:103500004FF0500383F31188BFF36F8FBFF34F8FDA
:103510004FF0FF320D4B1A600D4B18600D4B1C60C5
:1035200008B0BDE8104000F005BE013008D14FF0F2
:10353000500383F31188BFF36F8FBFF34F8FFEE704
:1035400008B010BD1B45000809330008B40A00206C
:10355000C80A0020D00A0020024A13680133136011
:10356000704700BFB00A0020014B1868704700BFC9
:10357000D00A0020404B2DE9F74F1B68002B73D178
:103580003E4B1C6801341C60BCB93D4B1A68126884
:1035900042B14FF0500383F31188BFF36F8FBFF335
:1035A0004F8FFEE7374A1968106818601160364A75
:1035B000136801331360FFF779FE344D4FF0000BB1
:1035C0002B68334E9C42334F12D214213A68D26A90
:1035D0004A43B258022A304A28BF4FF0010B126802
:1035E000002A18BF4FF0010B584603B0BDE8F08F1A
:1035F000DFF88C90DFF8A4A0D9F8002012681AB97F
:103600004FF0FF322A60E0E7D9F80020D268D2F804
:103610000C80D8F804108C4201D22960D5E708F15B
:10362000040318460193FFF72BF9D8F8281019B1B5
:1036300008F11800FFF724F91423D8F82C00DAF861
:103640000010884288BFCAF8000008F1040103FB9B
:103650000060FFF7F3F83868D8F82C10C26A91427E
:1036600028BF4FF0010BC7E70D4A4FF0000B13685E
:1036700001331360B8E700BFB00A0020D00A002071
:103680001C0B0020180B0020BC0A0020B40A0020EC
:10369000480B0020A80F0020C00A0020CC0A002000
:1036A000C40A00202DE9F041304C236843B94FF0A3
:1036B000500383F31188BFF36F8FBFF34F8FFEE783
:1036C00000F0B8FC2368013B236024682CB100247F
:1036D00000F0D0FC2046BDE8F081254B1B68002B94
:1036E000F5D0244D244EDFF894801DE0EB68DC68B3
:1036F000271D04F11800FFF7C3F83846FFF7C0F89C
:103700001420E36A326800FB03809342394688BF85
:103710003360FFF793F81A4BE26A1B68DB6A9A4240
:1037200002D30122174B1A602B68002BDED10CB19B
:10373000FFF7BCFD144D2C6844B10127114EFFF773
:1037400019FF00B13760013CF9D12C600D4B1B68AB
:10375000002BBCD04FF0E0234FF08052C3F8042D73
:10376000BFF34F8FBFF36F8F0124B1E7B00A002082
:10377000D40A0020040B0020CC0A0020480B0020B3
:10378000A80F0020C00A0020C40A002008B550B9C4
:103790004FF0E0234FF08052C3F8042DBFF34F8F5A
:1037A000BFF36F8F08BD0A4B196841B14FF050034A
:1037B00083F31188BFF36F8FBFF34F8FFEE7FFF7DF
:1037C000CBFEFFF73BFDFFF76DFF0028E0D0E9E7F8
:1037D000B00A0020184B70B51A68184B12B10122BC
:1037E0001A6070BD1426164D1A602A68154906FB2A
:1037F00002F3CC58C81894B14468083364680B4489
:103800009C4208BF6368446008BF4360142303FB05
:1038100002114B68D9680C4B19602A60E1E742B984
:103820004FF0500383F31188BFF36F8FBFF34F8FB7
:10383000FEE7013ADBE700BFB00A0020C00A002023
:10384000CC0A0020480B0020A80F002010B50C4621
:1038500040B94FF0500383F31188BFF36F8FBFF36C
:103860004F8FFEE7054B19681831FEF7F2FF20462F
:10387000BDE810400121FFF7E1BC00BFA80F002008
:1038800038B50D46144640B94FF0500383F3118804
:10389000BFF36F8FBFF34F8FFEE7084B19681831E6
:1038A000FEF7CCFF002C214608BF2846BDE8384073
:1038B00018BF4FF0FF30FFF7C1BC00BFA80F0020BA
:1038C00038B5C368DC6844B94FF0500383F31188FE
:1038D000BFF36F8FBFF34F8FFEE704F11805284643
:1038E000FEF7CEFF104B1B68DBB9251D2846FEF7FF
:1038F000C7FF0E4A14201168E36A8B42294688BF2D
:1039000013600B4A00FB0320FEF798FF094BE26AA5
:103910001B68DB6A9A4285BF0120074B00201860B4
:1039200038BD29460548EFE7B00A0020CC0A002040
:10393000480B0020A80F0020C00A0020040B002024
:10394000034B1B680360034B1B684360704700BF59
:10395000BC0A0020D00A002070B50C46054640B9CC
:103960004FF0500383F31188BFF36F8FBFF34F8F76
:10397000FEE741B94FF0500383F31188BFF36F8F17
:10398000BFF34F8FFEE700F055FB0F4B196823681C
:103990005A1C10D00D482E6800686A68864201D013
:1039A0008A420FD9881A83420AD95B1A13442846DF
:1039B0002360FFF7C5FF002400F05CFB204670BDCC
:1039C000002323600124F7E7D00A0020BC0A00206E
:1039D0000122014B1A607047C00A0020014B186891
:1039E000704700BFA80F0020054B1B6833B1054B83
:1039F0001868B0FA80F04009400070470120704715
:103A0000C80A0020B00A0020F8B5044638B31A4DA1
:103A1000C36A2A68D26A934226D28269174E002A64
:103A2000A1BF2A68D26AC2F138028261142202FB65
:103A3000036342699A4213D1071D3846FEF720FFFF
:103A400014202B680E4ADB6A116800FB03608B426E
:103A5000E362394688BF1360FEF7F0FE0120F8BD2F
:103A60002B68DB6AC362F9E72B68C06CDB6A98429B
:103A70002CBF00200120F2E7A80F0020480B0020F7
:103A8000CC0A002038B508B9002038BD1B4B1C6893
:103A9000844208D04FF0500383F31188BFF36F8F37
:103AA000BFF34F8FFEE7236D43B94FF0500383F30D
:103AB0001188BFF36F8FBFF34F8FFEE7E16AE26CAF
:103AC000013B91422365DFD0002BDDD1251D284627
:103AD000FEF7D6FE1420E36CC3F13802A261084A57
:103AE000E36211688B4288BF1360064A294600FBD7
:103AF0000320FEF7A3FE0120C7E700BFA80F0020A8
:103B0000CC0A0020480B002070B50446002841D0A4
:103B1000026D42B94FF0500383F31188BFF36F8FEA
:103B2000BFF34F8FFEE7C36C994238BF1946C36A93
:103B30008B422FD0012A2DD1174A1268824208D118
:103B40004FF0500383F31188BFF36F8FBFF34F8F94
:103B5000FEE78269114D002A4FF0140202FB035365
:103B60004269C162A4BFC1F1380181619A4211D199
:103B7000061D3046FEF784FE1420094AE36A1168E8
:103B800000FB03508B423146BDE8704088BF136094
:103B9000FEF754BE70BD00BFA80F0020480B0020E8
:103BA000CC0A0020044B1A681AB119680A6D013258
:103BB0000A651868704700BFA80F0020914208B539
:103BC000416000610AD8D21A83699A420DD2084B2B
:103BD000011D1868FEF73DFE002008BD9A4201D283
:103BE000994202D2034B011DF3E70120F5E700BF24
:103BF000A8100020AC100020F7B5114C00F01AFA04
:103C00002568BDB90F4F104E3846FEF709FE304605
:103C1000FEF706FE0D4B10211F600D4B0A201E60A3
:103C20000C4A0D4B0095FEF702FF206010B10B49C6
:103C3000FFF74EFA03B0BDE8F04000F01BBA00BF3A
:103C4000A4100020C4100020B0100020AC100020F0
:103C5000A8100020FC0F0020AC0F00202045000819
:103C600010B588B0FFF7C8FF124B1B68B3B1002432
:103C700007AA06A905A8CDE90544FEF7C5FD059BE1
:103C8000079A0293069B0C49019302230B48009369
:103C90002346FFF7B4FB0A4B186040B94FF05003BE
:103CA00083F31188BFF36F8FBFF34F8FFEE70120BF
:103CB00008B010BDA410002025450008C13D000833
:103CC000A01000207FB5164604461A4640B94FF0B2
:103CD000500383F31188BFF36F8FBFF34F8FFEE75D
:103CE0000D4D286880B10529CDE9001602940DDC40
:103CF000FFF77AFE0023022818BF1A46694608BF5C
:103D0000089A2868FEF708FF04B070BD00236946D2
:103D1000FFF705F8F8E700BFA41000202DE9F347EE
:103D20000646FFF721FCDFF88C800546D8F8003006
:103D3000834209D9204F3B681A686AB91F4A116843
:103D400013603960012300E0002328463360C8F87F
:103D5000005002B0BDE8F087DB68DC68D3F8009063
:103D600004F1040A5046FEF78BFD236A204698476B
:103D700094F828305B07DED5A3694B44994506D2F9
:103D80005146386863602461FEF763FDD3E7002382
:103D90004A46194620460093FFF794FF0028CAD1EF
:103DA0004FF0500383F31188BFF36F8FBFF34F8F32
:103DB000FEE700BF9C100020AC100020A8100020DF
:103DC0002DE9F0436E4D6F4E89B02B68D3F800801B
:103DD000B8F1000F35D00024DB68D3F80080FFF77E
:103DE000BBFB04A8FFF79AFF049B8146002B69D117
:103DF000002C4CD1404550D3FFF754FC2B68DB68B6
:103E0000DF68381DFEF73CFD97F8283058071AD5B3
:103E1000B96943464A4638464144FFF7CFFEB0B140
:103E200023464246214638460094FFF74BFF70B9BF
:103E30004FF0500383F31188BFF36F8FBFF34F8FA1
:103E4000FEE70124CBE723F0010387F8283038464A
:103E50003B6A98470022306804A9FEF7BDFF00289E
:103E6000B3D0049B0698002B2FDB069C6369002BC4
:103E700032D103A8FFF752FF049B0246092BE9D871
:103E8000DFE803F02E2E2E575E762E2E575E3E4B29
:103E90001B681C68B4FA84F4640922463068A8EBF5
:103EA0000901FFF727F9FFF7FDFB0028D2D14FF0FA
:103EB000E0234FF08052C3F8042DBFF34F8FBFF3C0
:103EC0006F8FC7E7FFF7EEFBC4E7059B079998479D
:103ED000049B002BBEDBC8E7201DFEF7D1FCC8E722
:103EE00094F82830A16943F0010384F82830059B39
:103EF00020461944FFF762FE0028ABD0236A204613
:103F0000984794F828305907A4D50023A269059949
:103F100020460A4400931946FFF7D4FE002899D1A1
:103F20004FF0500383F31188BFF36F8FBFF34F8FB0
:103F3000FEE794F8283023F0010384F8283089E75D
:103F400094F8283043F0010384F828300599A161E2
:103F500041B94FF0500383F31188BFF36F8FBFF364
:103F60004F8FFEE7034601442046FFF727FE71E727
:103F700094F828309A07DED4204600F01FFA69E74B
:103F8000AC100020A4100020A810002006480068F3
:103F9000006880F3088862B661B6BFF34F8FBFF345
:103FA0006F8F00DF00BF000008ED00E0002382B04B
:103FB00001930D4B1B68013308D04FF0500383F37E
:103FC0001188BFF36F8FBFF34F8FFEE74FF05003A1
:103FD00083F31188BFF36F8FBFF34F8F019B002BCB
:103FE000FCD002B0704700BF100000204FF080737B
:103FF00040F8043C054B21F0010140F8081C40F852
:104000000C3C40F8202C4038704700BFAD3F000802
:10401000074B19680868B0E8F00F80F30988BFF310
:104020006F8F4FF0000080F311884EF00D0E704737
:10403000A80F00204FF0500383F31188BFF36F8F58
:10404000BFF34F8F0A4A13680133012B13600ED15F
:104050004FF0E023D3F8043DDBB243B14FF05003FF
:1040600083F31188BFF36F8FBFF34F8FFEE7704765
:1040700010000020084A136843B94FF0500383F33F
:104080001188BFF36F8FBFF34F8FFEE7013B1360C3
:104090000BB983F311887047100000200000000066
:1040A000EFF30980BFF36F8F0D4B1A6820E9F00F13
:1040B00010602DE908404FF0500080F31188FFF7A1
:1040C00089FB4FF0000080F31188BDE808401968B3
:1040D0000868B0E8F00F80F30988BFF36F8F70476E
:1040E000A80F002008B54FF0500383F31188BFF3E9
:1040F0006F8FBFF34F8FFFF73DFA28B14FF0E023EA
:104100004FF08052C3F8042D002383F3118808BDBB
:104110004FF0E02200234FF47A7113619361044B56
:104120001B68B3FBF1F3013B536107231361704735
:104130000400002013B5274B1A78D2B20192FF2257
:104140001A701B78244ADBB28DF803309DF80330D7
:1041500003F0500313700723204A13609DF80310E7
:10416000136809060AD4032B11D04FF0500383F3D0
:104170001188BFF36F8FBFF34F8FFEE7013B1360D2
:104180009DF803305B00DBB28DF80330E6E74FF4B7
:1041900040731360019B0F4ADBB213704FF0E023B2
:1041A0000024D3F8202D42F47002C3F8202DD3F858
:1041B000202D42F07042C3F8202DFFF7A9FF084BD5
:1041C0001C60FFF7E3FEFFF705FB2046FFF7EEFE5E
:1041D00002B010BD00E400E0DC100020D810002088
:1041E00010000020EFF305830F2B0ED9114A9B5CC2
:1041F000114A12789A4208D94FF0500383F311887C
:10420000BFF36F8FBFF34F8FFEE74FF0E0230B4AF2
:10421000D3F80C3D126803F4E063934208D94FF0E1
:10422000500383F31188BFF36F8FBFF34F8FFEE707
:10423000704700BFF0E300E0DC100020D810002041
:1042400010B5104B1A461B688342FBD354681119F2
:10425000884201BF4168104609195160446801193C
:104260008B420CD1084909688B4203D0596821441C
:10427000416019689042016018BF106010BD194676
:10428000F8E700BFF8100020F41000202DE9F041FD
:104290000446FFF761F94249424D0B680BBB424AA5
:1042A00056071FBFD01D20F0070002F52052131A39
:1042B0000CBF4FF420530246002013443B4E083BF2
:1042C00023F0070370603260C3E90000981AC2E966
:1042D00000300B60364B1860364B18604FF00043CF
:1042E0002B602E68264255D1002C46D004F10803DD
:1042F00060071CBF23F007030833002B4AD02D4F63
:104300003C689C4246D3294A15686868984204D2A2
:10431000D5F800C0BCF1000F15D10968A94239D009
:104320002968D2F800801160C21A102A12D9E81840
:1043300041070BD04FF0500383F31188BFF36F8F09
:10434000BFF34F8FFEE72A466546DEE742606B60AB
:10435000FFF776FF00236A681549A41A1643164A28
:1043600008682B601368844203F101033C6038BF86
:104370000C606E6008F108041360FFF793F963079F
:104380000AD04FF0500383F31188BFF36F8FBFF350
:104390004F8FFEE70024F0E72046BDE8F08100BF24
:1043A000F4100020E010002000110020F810002080
:1043B000EC100020F0100020E810002010B504469A
:1043C00090B31A4A50F8043C1268134208D14FF0D7
:1043D000500383F31188BFF36F8FBFF34F8FFEE756
:1043E00050F8081C41B14FF0500383F31188BFF31C
:1043F0006F8FBFF34F8FFEE723EA020340F8043CC0
:10440000FFF7AAF80A4A54F8043C1168A4F108001E
:104410000B441360FFF714FFBDE81040054A136812
:1044200001331360FFF73EB910BD00BFE01000205C
:10443000F0100020E410002003460244934200D113
:10444000704703F8011BF9E770B500260C4D0D4CC1
:10445000641BA410A64209D100F028F800260A4DDA
:104460000A4C641BA410A64205D170BD55F8043B4C
:1044700098470136EEE755F8043B98470136F2E7D6
:10448000584A0008584A0008584A00085C4A000880
:104490000A44914200F1FF3300D1704710B511F882
:1044A000014B914203F8014FF9D110BDF8B500BF9F
:1044B000F8BC08BC9E467047F8B500BFF8BC08BC05
:0444C0009E4670475D
:1044C4006D6F646275734D7574657800756172748F
:1044D40033525175657565006D6F646275735175FE
:1044E4006575650075617272743352785461736BCB
:1044F400006C6564416E6452656C61795461736BE0
:10450400006D6F64627573546173736B004D6F74E7
:104514006F725461736B0049444C4500546D725181
:1045240000546D722053766300000000C4440008F8
:10453400000000000000000000000000D04400085B
:104544000000000000000000000000000000000067
:1045540000000000DC44000800000000000000002F
:10456400000000000000000000000000E844000813
:104574000000000000000000000000000000000037
:10458400000200001800000000000000000000000D
:10459400F5440008000000000000000000000000D6
:1045A40000000000000200001800000000000000ED
:1045B40000000000054500080000000000000000A5
:1045C40000000000000000000002000018000000CD
:1045D4000000000000000000114500080000000079
:1045E40000000000000000000000000000020000C5
:1045F4001800000000000000000000006800002017
:104604006A0000206C0000206E0000207000002072
:104614007200002074000020760000207800002042
:104624007A0000207C0000207E0000208000002012
:1046340082000020840000208600002088000020E2
:104644008A0000208C0000208E00002090000020B2
:104654009200002094000020960000209800002082
:104664009A0000209C0000209E000020A000002052
:10467400A2000020A4000020A6000020A800002022
:10468400AA000020AC000020AE000020B0000020F2
:10469400B2000020B4000020B6000020B8000020C2
:1046A400BA000020BC000020BE000020C000002092
:1046B400C2000020C4000020C6000020C800002062
:1046C400CA000020CC000020CE000020D000002032
:1046D400D2000020D4000020D6000020D800002002
:1046E400DA000020DC000020DE00002000000000D2
:1046F40000000000000000000000000000000000B6
:1047040000000000000000000000000000000000A5
:104714000000000000000000000000000000000095
:104724000000000000000000000000000000000085
:1049F400000000000000000000000000E0000020B3
:104A0400E2000020E4000020E6000020E80000208E
:104A1400EA000020EC000020EE000020F00000205E
:104A2400F2000020F4000020000000000102030452
:104A3400000000000000000001020304060708094A
:104A4400010202030405060708090A0B0C0D0E0FE8
:044A5400101000003E
:044A5800350100081C
:044A5C00110100083C
:104A60000700000000127A000100000010000000A2
:044A7000AAAAAAAA9A
:0400000508000F4997
:00000001FF
